:100000000C9463000C94F80E0C94250F0C948B0048
:100010000C948B000C948B000C948B000C948B0034
:100020000C948B000C948B000C948B000C948B0024
:100030000C948B000C948B000C948B000C948B0014
:100040000C94520F0C948B000C9404050C945605E0
:100050000C948B000C948B000C948B000C948B00F4
:100060000C948B000C948B000000000024002700EF
:100070002A0000000000250028002B0000000000DE
:1000800023002600290004040404040404040202DA
:100090000202020203030303030301020408102007
:1000A0004080010204081020010204081020000012
:1000B0000007000201000003040600000000000029
:1000C0000000BD04C50611241FBECFEFD8E0DEBF7F
:1000D000CDBF11E0A0E0B1E0E8EBF4E202C0059092
:1000E0000D92A43BB107D9F713E0A4EBB1E001C036
:1000F0001D92A633B107E1F710E0C6ECD0E004C0D2
:100100002297FE010E945612C23CD107C9F70E94F5
:100110001C070C9464020C940000CF93DF93BC0185
:100120008230910510F462E070E0A0913403B09148
:100130003503ED0140E050E0E0E0F0E021C08881CF
:1001400099818617970769F48A819B81309719F006
:100150009383828304C09093350380933403FE011C
:1001600034C06817790738F44115510519F0841720
:10017000950708F4AC01FE018A819B819C01E9018D
:100180002097E9F641155105A9F1CA01861B970B85
:10019000049708F4BA01E0E0F0E02AC08D919C9148
:1001A000119784179507F9F46417750781F412966F
:1001B0008D919C911397309719F09383828304C09B
:1001C0009093350380933403FD0132964CC0CA01ED
:1001D000861B970BFD01E80FF91F6193719302973E
:1001E0008D939C9340C0FD01828193819C01D90134
:1001F0001097A1F68091320390913303892B41F43B
:1002000080919D0190919E019093330380933203DE
:1002100040919F015091A0014115510541F44DB706
:100220005EB780919B0190919C01481B590B2091D6
:10023000320330913303CA01821B930B8617970751
:1002400080F0AB014E5F5F4F8417950750F0420F6F
:10025000531F5093330340933203F9016193719319
:1002600002C0E0E0F0E0CF01DF91CF910895CF939D
:10027000DF93009709F450C0EC0122971B821A8289
:10028000A0913403B0913503109709F140E050E09C
:10029000AC17BD0708F1BB83AA83FE012191319100
:1002A000E20FF31FAE17BF0779F48D919C91119760
:1002B000280F391F2E5F3F4F3983288312968D9167
:1002C0009C9113979B838A834115510571F4D093B8
:1002D0003503C093340320C012968D919C911397DF
:1002E000AD01009711F0DC01D3CFFA01D383C283B3
:1002F00021913191E20FF31FCE17DF0769F4888156
:100300009981280F391F2E5F3F4FFA0131832083D7
:100310008A819B8193838283DF91CF910895A0E0AE
:10032000B0E0E5E9F1E00C941F126C01009729F4AC
:10033000CB010E948D006C01C1C08EEF882E8FEF23
:10034000982E8C0C9D1C8601060F171F0815190589
:1003500008F4B2C0F401A081B181A617B707B8F0C4
:10036000A530B10508F4AAC0CD01049786179707F8
:1003700008F4A4C01297A61BB70BF801A193B19380
:10038000D4016D937C93CF010E94370197C07B010C
:10039000EA1AFB0AEEEFFFEFEE0EFF1E36016A0EC1
:1003A0007B1EC0913403D0913503AA24BB2444247E
:1003B00055244AC0C615D705E1F5488159814E1527
:1003C0005F05B8F1CA0104978E159F05B0F4129627
:1003D000A40FB51FF401B183A0832A813B8141148E
:1003E000510431F0D20113963C932E93129766C0BC
:1003F000309335032093340361C08A819B81F801D7
:1004000093838283425050404E195F095183408349
:100410004114510431F0D20113961C930E9312979C
:1004200004C01093350300933403F4017183608397
:1004300045C088819981A816B90608F45C012E018F
:100440008A819B819C01E901209709F0B3CF8091BB
:1004500032039091330386159705E9F4A616B70683
:10046000D0F420919F013091A0012115310541F474
:100470002DB73EB780919B0190919C01281B390BB1
:1004800002171307C8F41093330300933203D40107
:100490006D937C9313C0CB010E948D00EC010097FB
:1004A00059F0F40140815181B6010E946702C601F2
:1004B0000E9437016E0102C0CC24DD24C601CDB7F5
:1004C000DEB7E0E10C943B12F8940C945A12FB0155
:1004D000DC0102C001900D9241505040D8F70895C0
:1004E000FB01DC018D91019080190110D9F3990B6A
:1004F0000895FB01DC0101900D920020E1F70895C1
:10050000FB01DC014150504048F001900D92002069
:10051000C9F701C01D9241505040E0F708950F9374
:100520001F93CF93DF938C01EB01CB0160E071E06F
:100530000E94D307882321F189E692E063E071E00D
:100540000E9493070E5F1F4F83E090E061E070E030
:1005500041E00E949A03BC01C8010E94860E83E01C
:1005600090E062E070E041E00E949A03BC01C801A3
:100570000E94860E83E090E063E070E041E02AC0D4
:10058000CE0161E171E00E94D307882351F189E631
:1005900092E065E171E00E9493070E5F1F4F83E0D8
:1005A00090E061E070E040E00E949A03BC01C80165
:1005B0000E94860E83E090E062E070E040E00E94DE
:1005C0009A03BC01C8010E94860E83E090E063E0BC
:1005D00070E040E00E949A03BC01C8010E94860EB0
:1005E00006C089E692E064E271E00E949307DF9121
:1005F000CF911F910F910895CF92DF92EF92FF92CA
:100600000F931F93DF93CF93CDB7DEB72C970FB621
:10061000F894DEBF0FBECDBF6C018E010F5F1F4F80
:10062000C80166E371E00E94BB0889E692E067E3D7
:1006300071E00E949307F02EE12E89E692E00E947D
:10064000180618161906CCF789E692E00E944C06A7
:10065000682F8D3071F58E01095F1F4FC8016F2D16
:100660007E2D0E940409C601B8010E948F02C801B4
:100670000E9418098F2D9E2D66E371E00E94D40818
:1006800089E692E067E371E00E9493078F2D9E2D2B
:100690000E9418092C960FB6F894DEBF0FBECDBF8E
:1006A000CF91DF911F910F91FF90EF90DF90CF904E
:1006B00008958F2D9E2D0E945908BFCFCF92DF92B3
:1006C000EF92FF920F931F93DF93CF93CDB7DEB7D7
:1006D00029970FB6F894DEBF0FBECDBF6C01E9823B
:1006E000FA820B831C832D833E834F83588769874F
:1006F0008C010E5F1F4FC8010E94240981E090E029
:10070000F60191838083D801FE01319689E0019042
:100710000D928150E1F729960FB6F894DEBF0FBE17
:10072000CDBFCF91DF911F910F91FF90EF90DF90A0
:10073000CF9008959F92AF92BF92CF92DF92EF92A7
:10074000FF920F931F93DF93CF93CDB7DEB7C854BB
:10075000D0400FB6F894DEBF0FBECDBF7C015B0169
:10076000942E6E010894C11CD11CC60161E571E094
:100770000E94BB088E01095F1F4FC80161E571E04F
:100780000E94BB08C601B8010E94ED08C8010E9482
:100790001809C60162E571E00E94D40882E0E816FB
:1007A000F104F9F083E0E816F10434F481E0E8168E
:1007B000F10409F0C8C00AC083E0E816F104E1F0D2
:1007C00084E0E816F10409F0BEC021C08E01035F89
:1007D0001F4FC801B6010E940E09C80164E571E00F
:1007E00020C08E010D5E1F4FC801B6010E940E0988
:1007F000C8016DE571E015C08E01075E1F4FC8018D
:10080000B6010E940E09C80166E671E00AC08E01B9
:10081000015E1F4FC801B6010E940E09C8016FE6B4
:1008200071E00E947E08BC01C6010E94ED08C8016B
:100830000E941E0982E0A816B104C1F083E0A81648
:10084000B10419F181E0A816B10409F07CC08E0151
:100850000B5D1F4FC8017E010894E11CF11CB7011C
:100860000E940E09C80168E771E01DC08E01055D98
:100870001F4FC8017E010894E11CF11CB7010E94C2
:100880000E09C8016FE771E00EC08E010F5C1F4FAB
:10089000C8017E010894E11CF11CB7010E940E09F9
:1008A000C80166E871E00E947E08BC01C7010E9491
:1008B000ED08C8010E941E098E01095C1F4FC80186
:1008C0007E010894E11CF11CB7010E940E09C801C9
:1008D0006DE871E00E947E08BC01C7010E94ED082E
:1008E000C8010E941E09992071F081E0981659F5FF
:1008F0008E01035C1F4FC801B7010E940E09C80199
:1009000065E971E00AC08E010D5B1F4FC801B70198
:100910000E940E09C80168E971E00E947E08BC01CE
:10092000C7010E94ED08C8010E941E09CE01019670
:1009300064EB71E049E150E020E030E00E94A6075E
:1009400004EB11E002C000E010E0CE0101960E942D
:100950001809C801C85BDF4F0FB6F894DEBF0FBEA1
:10096000CDBFCF91DF911F910F91FF90EF90DF905E
:10097000CF90BF90AF909F900895EF92FF920F930A
:100980001F938DEC91E00E94240986ED91E0E090A8
:10099000CD01F090CE010091CF011091D0012091B6
:1009A000D1013091D2014091D3015091D401609195
:1009B000D5010E945E031F910F91FF90EF90089563
:1009C00086ED91E00E94FC0208950F931F9389E643
:1009D00092E040E855E260E070E00E9491050DEC85
:1009E00011E0C8016AE070E00E94BA0EC80161E03F
:1009F00070E00E944409C80164E371E00E945C0950
:100A00001F910F91089508951F920F920FB60F92A4
:100A100011242F933F934F938F939F93EF93FF93C3
:100A20008091C00082FD1DC04091C600209121022E
:100A3000309122022F5F3F4F2F733070809123023D
:100A4000909124022817390771F0E0912102F0916A
:100A50002202EF51FE4F4083309322022093210265
:100A600002C08091C600FF91EF919F918F914F91AD
:100A70003F912F910F900FBE0F901F901895E0910E
:100A80007502F0917602E05CFF4F81919191208197
:100A90003181805C9F4F821B930B60E470E00E9469
:100AA000E811892B11F00E94030508951F920F92FF
:100AB0000FB60F9211242F933F938F939F93EF9331
:100AC000FF932091650230916602809167029091B8
:100AD00068022817390731F48091C1008F7D809317
:100AE000C10014C0E0916702F0916802EB5DFD4F18
:100AF0002081809167029091680201968F739070B7
:100B000090936802809367022093C600FF91EF9153
:100B10009F918F913F912F910F900FBE0F901F903B
:100B20001895AF92BF92DF92EF92FF920F931F93AF
:100B3000CF93DF93EC017A018B01DD24403081EE0D
:100B4000580780E0680780E0780711F0DD24D3942F
:100B500091E0A92EB12CEC89FD89DD2069F0C50159
:100B600008A002C0880F991F0A94E2F7808360E012
:100B700079E08DE390E005C0108260E874E88EE1D2
:100B800090E0A80197010E94FB11215030404040A5
:100B90005040569547953795279580E12030380786
:100BA00020F0DD2011F0DD24D6CFE889F9893083EB
:100BB000EA89FB89208319A2EE89FF89408121E01F
:100BC00030E0C9010C8C02C0880F991F0A94E2F72B
:100BD000482B4083EE89FF894081C9010D8C02C0FA
:100BE000880F991F0A94E2F7482B4083EE89FF890A
:100BF0004081C9010E8C02C0880F991F0A94E2F748
:100C0000482B4083EE89FF8980810F8C02C0220F20
:100C1000331F0A94E2F7209528232083DF91CF9198
:100C20001F910F91FF90EF90DF90BF90AF900895CC
:100C3000DC011C96ED91FC911D97E05CFF4F8191CA
:100C4000919120813181805C9F4F821B930B60E4E6
:100C500070E00E94E8110895DC011C96ED91FC9172
:100C60001D97E05CFF4F20813181E054F040DF01AF
:100C7000AE5BBF4F8D919C9111972817390719F4DE
:100C80002FEF3FEF07C08D919C91E80FF91F8081F6
:100C9000282F30E0C9010895DC011C96ED91FC91EC
:100CA0001D97E05CFF4F20813181E054F040DF016F
:100CB000AE5BBF4F8D919C9111972817390719F49E
:100CC0002FEF3FEF10C08D919C911197E80FF91F06
:100CD00020818D919C91119701968F739070119640
:100CE0009C938E9330E0C9010895DC0191968C911C
:100CF0009197882339F05496ED91FC915597808116
:100D000086FFF9CF91961C920895CF93DF93EC0163
:100D1000EE85FF85E05CFF4F20813181E054F0409B
:100D20002F5F3F4F2F733070DF01AE5BBF4F8D9150
:100D30009C91119728173907D1F3E05CFF4F808110
:100D40009181E054F040E80FF91F6083EE85FF8544
:100D5000E05CFF4F31832083EE89FF89208181E0B1
:100D600090E00F8C02C0880F991F0A94E2F7282B9D
:100D7000208381E089A3EC89FD8980818064808360
:100D800081E090E0DF91CF91089510926C02109273
:100D90006B0288EE93E0A0E0B0E080936D02909348
:100DA0006E02A0936F02B093700287EA91E0909375
:100DB0006A028093690281EE91E0909376028093BB
:100DC000750285E292E0909378028093770285EC39
:100DD00090E090937A028093790284EC90E0909373
:100DE0007C0280937B0280EC90E090937E02809363
:100DF0007D0281EC90E09093800280937F0282ECF0
:100E000090E0909382028093810286EC90E0909330
:100E100084028093830284E08093850283E0809340
:100E2000860287E08093870285E08093880281E0D4
:100E30008093890208950895CF93DF930E94CA0F8B
:100E40000E941B070E94E504CFE3D5E00E94E00466
:100E50002097E1F30E943F05F9CFCF92DF92EF9206
:100E6000FF920F931F93CF93DF937C016B018A0155
:100E7000C0E0D0E00FC0D6016D916D01D701ED91BA
:100E8000FC910190F081E02DC7010995C80FD91F91
:100E9000015010400115110571F7CE01DF91CF917E
:100EA0001F910F91FF90EF90DF90CF900895EF92F8
:100EB000FF920F931F938C01DC01ED91FC91019047
:100EC000F081E02D6DE009957C01D801ED91FC9158
:100ED0000190F081E02DC8016AE009959C012E0D7A
:100EE0003F1DC9011F910F91FF90EF900895CF937F
:100EF000DF93EC016115710519F420E030E00FC0BB
:100F0000DB010D900020E9F71197A61BB70BE881D4
:100F1000F9810280F381E02DAD0109959C01C901A1
:100F2000DF91CF910895EF92FF920F931F937C0171
:100F30000E9477078C01C7010E945707080F191FED
:100F4000C8011F910F91FF90EF9008950F931F9389
:100F5000CF93DF93FC018B0141155105F9F0611529
:100F60007105E1F0848195812817390718F0FB019C
:100F7000108214C041505040EC01C21BD30B4C17DF
:100F80005D0708F4EA0160817181620F731FC80177
:100F9000AE010E948002C00FD11F1882DF91CF9155
:100FA0001F910F910895DC01FB0114968D919C9186
:100FB0001597892B31F461157105A9F090E08081B6
:100FC00008C00D90BC91A02D6115710529F490E029
:100FD0008C91882349F407C0CD010E9470029C01C6
:100FE00090E0232B09F491E0892F08950F931F932C
:100FF000CF93DF93EC018B016F5F7F4F88819981E5
:101000000E948F01009711F480E005C099838883C6
:101010001B830A8381E0DF91CF911F910F91089587
:10102000CF93DF93EC0188819981892B29F08A8104
:101030009B818617970760F4CE010E94F6078823EC
:1010400041F08C819D81892B19F4E881F98110820E
:1010500081E0DF91CF910895EF92FF920F931F935C
:10106000CF93DF93EC017B016C817D81E114F1046E
:10107000C1F04115510599F08A01060F171FB801FB
:101080000E941008882369F0888199812C813D8114
:10109000820F931FB7010E9479021D830C8381E0A8
:1010A00001C080E0DF91CF911F910F91FF90EF90F1
:1010B0000895DF93CF9300D0CDB7DEB769831A824E
:1010C000BE016F5F7F4F41E050E00E942C080F90FF
:1010D0000F90CF91DF910895CF93DF93EC0188813A
:1010E0009981009711F00E943701198218821D82A0
:1010F0001C821B821A82DF91CF9108950F931F9358
:10110000182F092F6115710561F0DB010D9000208A
:10111000E9F71197A61BB70BAD010E942C08882395
:1011200021F4812F902F0E946C08812F902F1F9106
:101130000F910895EF92FF920F931F93CF93DF9338
:10114000EC017B018A01BA010E941008882321F476
:10115000CE010E946C0807C01D830C838881998191
:10116000B7010E947902CE01DF91CF911F910F91BB
:10117000FF90EF900895CF93DF93EC0119821882CE
:101180001B821A821D821C826115710551F0DB01E0
:101190000D900020E9F71197A61BB70BAD010E9437
:1011A0009A08DF91CF9108950F931F93182F092F5D
:1011B0006115710559F0DB010D900020E9F71197D9
:1011C000A61BB70BAD010E949A0802C00E946C08D2
:1011D000812F902F1F910F910895CF93DF93EC01F2
:1011E000FB018617970761F06081718161157105B8
:1011F00029F0448155810E949A0802C00E946C081F
:10120000CE01DF91CF910895FC01118210821382EB
:101210001282158214820E94ED080895FC01118249
:10122000108213821282158214820E94ED080895A2
:10123000FC01808191810E9437010895FC01808129
:1012400091810E9437010895FC012FEF3FEF338316
:1012500022838AE090E09783868381E080878EE511
:1012600091E095838483318320838CE390E0909395
:10127000A2018093A10110928B0210928C02109215
:101280008D0210928E020895FC0160876130710515
:1012900019F48EE591E005C06230710529F48AE801
:1012A00092E09583848308956330710521F484E688
:1012B00090E0958384830895FC0175836483089589
:1012C0002F923F924F925F926F927F928F929F9256
:1012D000AF92BF92CF92DF92EF92FF920F931F9344
:1012E000DF93CF93CDB7DEB762970FB6F894DEBF2A
:1012F0000FBECDBF3C0180919502909196026FE1A7
:1013000070E00E94D4114B017B0100E010E02091BD
:10131000A1013091A201442737FD4095542FC80107
:10132000B7010E94B5110E94C4102AE037ED43E2D4
:101330005CE30E9452110E949810A8019701220FAD
:10134000331F441F551F2E0D3F1D401F511F5901B4
:101350006A01A61AB70AC80AD90AAD82BE82CF822C
:10136000D8865B016C01A20EB31EC41ED51EA982D5
:10137000BA82CB82DC82AA24BB24650121E030E062
:101380003A87298717012801261A370A480A590A75
:10139000A8019701260F371F481F591F2F87388B29
:1013A000498B5A8B7AC0E985FA85EE0FFF1FEB5601
:1013B000FD4F808191819C0140E050E02216330670
:1013C0004406550658F58F859889A989BA89281742
:1013D00039074A075B0710F5E985FA85EE0FFF1F0D
:1013E000E956FD4F0190F081E02D7F0100E010E013
:1013F000EB86FC860D871E878D819E81AF81B88527
:101400008E159F05A007B10748F489819A81AB81A9
:10141000BC81E816F9060A071B0778F1ED80FE800B
:101420000F811885E216F3060407150758F5898120
:101430009A81AB81BC81281739074A075B0710F5F1
:10144000E985FA85EE0FFF1FE956FD4F80819181F6
:10145000A0E0B0E0281639064A065B0698F4EF844F
:10146000F88809891A898E159F05A007B10750F4DD
:101470000894A11CB11CC11CD11CAA0CBB1CCC1C07
:10148000DD1C05C07A866986AA24BB24650109850E
:101490001A850E5F1F4F1A87098729853A852615F9
:1014A000370508F480CFA6019501569547953795E5
:1014B000279587E068167104C0F020938B02309363
:1014C0008C0240938D0250938E02769467947092B2
:1014D000900260928F02909292028092910281E03B
:1014E00090E0909394028093930280E0211531055F
:1014F0004105510509F081E062960FB6F894DEBF10
:101500000FBECDBFCF91DF911F910F91FF90EF9054
:10151000DF90CF90BF90AF909F908F907F906F9013
:101520005F904F903F902F9008952F923F924F924F
:101530005F926F927F928F929F92AF92BF92CF9263
:10154000DF92EF92FF920F931F93DF93CF93CDB76C
:10155000DEB762970FB6F894DEBF0FBECDBF3C0179
:1015600080919502909196026AE070E00E94D411F9
:101570004B017B0100E010E02091A1013091A2011C
:10158000442737FD4095542FC801B7010E94B5117B
:101590000E94C4102AE037ED43E25CE30E9452113E
:1015A0000E949810A8019701220F331F441F551F56
:1015B00059016A01A61AB70AC80AD90AAD82BE82C1
:1015C000CF82D8865B016C01A20EB31EC41ED51E4D
:1015D000A982BA82CB82DC82AA24BB24650121E0E5
:1015E00030E03A87298717012801261A370A480A66
:1015F000590AA8019701260F371F481F591F2F8727
:10160000388B498B5A8B7AC0E985FA85EE0FFF1F1C
:10161000EB56FD4F808191819C0140E050E0221605
:1016200033064406550658F58F859889A989BA89E5
:10163000281739074A075B0710F5E985FA85EE0F89
:10164000FF1FE956FD4F0190F081E02D7F0100E082
:1016500010E0EB86FC860D871E878D819E81AF8111
:10166000B8858E159F05A007B10748F489819A8136
:10167000AB81BC81E816F9060A071B0778F1ED80FB
:10168000FE800F811885E216F3060407150758F54A
:1016900089819A81AB81BC81281739074A075B078A
:1016A00010F5E985FA85EE0FFF1FE956FD4F8081A1
:1016B0009181A0E0B0E0281639064A065B0698F44E
:1016C000EF84F88809891A898E159F05A007B1074C
:1016D00050F40894A11CB11CC11CD11CAA0CBB1C49
:1016E000CC1CDD1C05C07A866986AA24BB24650152
:1016F00009851A850E5F1F4F1A87098729853A8544
:101700002615370508F480CFA60195015695479513
:101710003795279587E068167104C0F020938B02F7
:1017200030938C0240938D0250938E02769467948E
:101730007092900260928F02909292028092910237
:1017400082E090E0909394028093930280E02115D0
:1017500031054105510509F081E062960FB6F89414
:10176000DEBF0FBECDBFCF91DF911F910F91FF90D4
:10177000EF90DF90CF90BF90AF909F908F907F9031
:101780006F905F904F903F902F9008952F923F92CF
:101790004F925F926F927F928F929F92AF92BF9281
:1017A000CF92DF92EF92FF920F931F93DF93CF932D
:1017B000CDB7DEB76C970FB6F894DEBF0FBECDBFC6
:1017C0004C01809195029091960267E470E00E942E
:1017D000D4111B015B01CC24DD242091A1013091A7
:1017E000A201442737FD4095542FC601B5010E9440
:1017F000B5110E94C4102AE037ED43E25CE30E9479
:1018000052110E9498107B018C01D601C50142E063
:10181000880F991FAA1FBB1F4A95D1F79C01AD01E4
:101820002E193F09400B510B2D8B3E8B4F8B588F40
:10183000A8019701280F391F4A1F5B1F298B3A8B7C
:101840004B8B5C8BC601B5012BE030E040E050E0F3
:101850000E94B5119B01AC012E193F09400B510BA1
:101860002D873E874F87588BA8019701260F371F7A
:10187000481F591F29873A874B875C87D601C501C6
:1018800033E0880F991FAA1FBB1F3A95D1F78A0D25
:101890009B1DAC1DBD1D9C01AD012E193F09400BC8
:1018A000510B2D833E834F835887A8019701280F42
:1018B000391F4A1F5B1F29833A834B835C83C60110
:1018C000B50126E030E040E050E00E94B5112B0168
:1018D0003C014E185F08600A710A57016801A60EA4
:1018E000B71EC81ED91EA98EBA8ECB8EDC8EEE24F2
:1018F000FF24870161E070E070C0FB01EE0FFF1F65
:10190000EB56FD4F808191819C0140E050E08D8934
:101910009E89AF89B88D82179307A407B50720F574
:10192000A988BA88CB88DC882A153B054C055D055B
:10193000D8F4FB01EE0FFF1FE956FD4F8081918126
:10194000A0E0B0E0AD84BE84CF84D888A816B906E4
:10195000CA06DB0648F4A984BA84CB84DC848A15E1
:101960009B05AC05BD0570F18D819E81AF81B88569
:1019700082179307A407B50750F5A980BA80CB80DA
:10198000DC802A153B054C055D0508F5FB01EE0FD3
:10199000FF1FE956FD4F80819181A0E0B0E048161D
:1019A00059066A067B0698F4298D3A8D4B8D5C8D1D
:1019B00082179307A407B50750F40894E11CF11CA3
:1019C000011D111DEE0CFF1C001F111F04C0B401EE
:1019D000EE24FF2487016E5F7F4F6815790508F4B8
:1019E0008CCFA8019701569547953795279587E0A5
:1019F00088169104C0F020938B0230938C024093A0
:101A00008D0250938E0296948794909290028092C9
:101A10008F02309292022092910283E090E09093A4
:101A200094028093930280E0211531054105510510
:101A300009F081E06C960FB6F894DEBF0FBECDBF03
:101A4000CF91DF911F910F91FF90EF90DF90CF909A
:101A5000BF90AF909F908F907F906F905F904F90CE
:101A60003F902F900895CF92DF92EF92FF920F93C5
:101A70001F93CF93DF930E949A0F6B017C0180919B
:101A80001D0390911E038601081B190B109324035C
:101A90000093230383E109381807C0F120919502D0
:101AA00030919602C901885C90408017910750F5EB
:101AB00028533F4F0217130728F580911B0390917D
:101AC0001C03019690931C0380931B03C091210378
:101AD000D09122032197D0932203C0932103029730
:101AE00089F4CE010E946009882341F4CE010E944E
:101AF000950A882319F4CE010E94C60B10921C038C
:101B000010921B0310922203109221038091210353
:101B1000909122038334910540F010922203109299
:101B2000210310921C0310921B03809121039091BA
:101B30002203FC01EE0FFF1FEB56FD4F11830083C4
:101B400001969093220380932103C0921D03D092AB
:101B50001E03E0921F03F0922003DF91CF911F91AB
:101B60000F91FF90EF90DF90CF9008950F931F9308
:101B70008C01FC0180810E94E50E8FEF9FEFF80140
:101B8000918380831F910F910895FC018081918141
:101B90002FEF8F3F920791F010928B0210928C02E0
:101BA00010928D0210928E021092900210928F026B
:101BB00063E37DE041E050E00E94C20E0895AF92E1
:101BC000BF92DF92EF92FF920F931F93CF93DF9319
:101BD000EC017B015A01088119818A819B818F5F09
:101BE0009F4F91F13FEF0F3F130711F4DD2405C024
:101BF000CE010E94B60DDD24D3948A8161E00E945B
:101C000044108C819D819C01E29EC001E39E900D59
:101C1000F29E900D11240E94C00F8A8160E00E9404
:101C200044108C819D819C01A29EC001A39E900DB9
:101C3000B29E900D11240E94C00FDD2029F019835F
:101C40000883CE010E94C50DDF91CF911F910F91A6
:101C5000FF90EF90DF90BF90AF900895FC018085DA
:101C6000813031F4CF0161E070E04FE150E007C016
:101C7000823041F4CF0161E070E04AE050E00E9420
:101C8000DF0D0895833039F4CF0161E070E047E45F
:101C900050E00E94DF0D0895FC018085813021F421
:101CA000CF0163E070E005C0823041F4CF0162E013
:101CB00070E041E050E00E94DF0D0895833039F478
:101CC000CF0169E070E046E050E00E94DF0D08952A
:101CD000FC018085813031F4CF0161E070E043E0A8
:101CE00050E007C0823041F4CF0161E070E042E093
:101CF00050E00E94DF0D0895833039F4CF0164E095
:101D000070E04BE050E00E94DF0D0895CF92DF922B
:101D1000EF92FF920F931F93CF93DF938C016B0190
:101D2000EE24FF2416C0803319F0813341F404C03F
:101D3000C8010E94680E03C0C8010E944C0E219683
:101D40008881882381F7C8010E942E0E0894E11C27
:101D5000F11CF80186819781E816F90614F4E60172
:101D6000EFCFDF91CF911F910F91FF90EF90DF9018
:101D7000CF900895FC01862F6283738361E00E94F7
:101D800005100895823000F5E82FF0E0EE0FFF1FF8
:101D9000EB5DFC4F71836083882319F08130A1F4DF
:101DA00008C0809169008C7F842B80936900E89A39
:101DB000089580916900440F551F440F551F837F7C
:101DC000842B80936900E99A0895823080F48823F7
:101DD00019F0813021F402C0E89801C0E998E82F99
:101DE000F0E0EE0FFF1FEB5DFC4F118210820895B3
:101DF0001F920F920FB60F9211242F933F934F9380
:101E00005F936F937F938F939F93AF93BF93EF9362
:101E1000FF938091250390912603892B29F0E0916F
:101E20002503F09126030995FF91EF91BF91AF91A2
:101E30009F918F917F916F915F914F913F912F91E2
:101E40000F900FBE0F901F9018951F920F920FB614
:101E50000F9211242F933F934F935F936F937F9330
:101E60008F939F93AF93BF93EF93FF93809127033B
:101E700090912803892B29F0E0912703F091280302
:101E80000995FF91EF91BF91AF919F918F917F91B4
:101E90006F915F914F913F912F910F900FBE0F90D7
:101EA0001F9018951F920F920FB60F9211242F9327
:101EB0003F938F939F93AF93BF9380912D03909106
:101EC0002E03A0912F03B09130033091310301967E
:101ED000A11DB11D232F2D5F2D3720F02D57019609
:101EE000A11DB11D2093310380932D0390932E03E8
:101EF000A0932F03B09330038091290390912A037C
:101F0000A0912B03B0912C030196A11DB11D8093CC
:101F1000290390932A03A0932B03B0932C03BF9122
:101F2000AF919F918F913F912F910F900FBE0F9086
:101F30001F9018959FB7F8942091290330912A0398
:101F400040912B0350912C0386B5A89B06C08F3F70
:101F500021F02F5F3F4F4F4F5F4F9FBF542F432FB5
:101F6000322F2227280F311D411D511D82E0220FE3
:101F7000331F441F551F8A95D1F7B901CA0108952F
:101F8000019739F0880F991F880F991F02970197C1
:101F9000F1F70895789484B5826084BD84B581603A
:101FA00084BD85B5826085BD85B5816085BDEEE661
:101FB000F0E0808181608083E1E8F0E01082808140
:101FC00082608083808181608083E0E8F0E08081AE
:101FD00081608083E1EBF0E0808184608083E0EBCE
:101FE000F0E0808181608083EAE7F0E080818460B6
:101FF0008083808182608083808181608083808112
:10200000806880831092C1000895CF93DF93482F9A
:1020100050E0CA0186569F4FFC0134914A575F4FEA
:10202000FA018491882369F190E0880F991FFC01DF
:10203000E859FF4FA591B491FC01EE58FF4FC591AF
:10204000D491662351F42FB7F8948C91932F9095E7
:1020500089238C93888189230BC0623061F42FB768
:10206000F8948C91932F909589238C938881832B5E
:1020700088832FBF06C09FB7F8948C91832B8C93D5
:102080009FBFDF91CF910895482F50E0CA0182553C
:102090009F4FFC012491CA0186569F4FFC019491E9
:1020A0004A575F4FFA013491332309F440C0222389
:1020B00051F1233071F0243028F42130A1F0223086
:1020C00011F514C02630B1F02730C1F02430D9F416
:1020D00004C0809180008F7703C0809180008F7D45
:1020E0008093800010C084B58F7702C084B58F7D47
:1020F00084BD09C08091B0008F7703C08091B0008B
:102100008F7D8093B000E32FF0E0EE0FFF1FEE58BD
:10211000FF4FA591B4912FB7F894662321F48C91C9
:102120009095892302C08C91892B8C932FBF0895A1
:1021300098D088F09F5790F0B92F9927B751A0F009
:10214000D1F0660F771F881F991F1AF0BA95C9F74B
:1021500012C0B13081F09FD0B1E008959CC0672FCC
:10216000782F8827B85F39F0B93FCCF386957795FB
:102170006795B395D9F73EF49095809570956195E4
:102180007F4F8F4F9F4F0895E89409C097FB3EF40F
:1021900090958095709561957F4F8F4F9F4F9923B4
:1021A000A9F0F92F96E9BB279395F6958795779532
:1021B0006795B795F111F8CFFAF4BB0F11F460FFF2
:1021C0001BC06F5F7F4F8F4F9F4F16C0882311F04A
:1021D00096E911C0772321F09EE8872F762F05C05E
:1021E000662371F096E8862F70E060E02AF09A95F9
:1021F000660F771F881FDAF7880F9695879597F9EE
:10220000089597F99F6780E870E060E008959FEF78
:1022100080EC089500240A9416161706180609067D
:10222000089500240A94121613061406050608954C
:10223000092E0394000C11F4882352F0BB0F40F4D4
:10224000BF2B11F460FF04C06F5F7F4F8F4F9F4F14
:10225000089557FD9058440F551F59F05F3F71F096
:102260004795880F97FB991F61F09F3F79F08795FD
:102270000895121613061406551FF2CF4695F1DF86
:1022800008C0161617061806991FF1CF8695710516
:10229000610508940895E894BB2766277727CB014A
:1022A00097F908950BD0C4CFB5DF28F0BADF18F046
:1022B000952309F0A6CFABCF1124EECFCADFA0F350
:1022C000959FD1F3950F50E0551F629FF001729FCB
:1022D000BB27F00DB11D639FAA27F00DB11DAA1FEA
:1022E000649F6627B00DA11D661F829F2227B00D37
:1022F000A11D621F739FB00DA11D621F839FA00DC2
:10230000611D221F749F3327A00D611D231F849F11
:10231000600D211D822F762F6A2F11249F57504068
:102320008AF0E1F088234AF0EE0FFF1FBB1F661F03
:10233000771F881F91505040A9F79E3F510570F0BC
:1023400060CFAACF5F3FECF3983EDCF3869577959C
:102350006795B795F795E7959F5FC1F7FE2B880FB7
:10236000911D9695879597F90895629FD001739F67
:10237000F001829FE00DF11D649FE00DF11D929F21
:10238000F00D839FF00D749FF00D659FF00D992760
:10239000729FB00DE11DF91F639FB00DE11DF91F84
:1023A000BD01CF0111240895AA1BBB1B51E107C039
:1023B000AA1FBB1FA617B70710F0A61BB70B881FD5
:1023C000991F5A95A9F780959095BC01CD01089564
:1023D00097FB092E07260AD077FD04D0E5DF06D04B
:1023E00000201AF4709561957F4F0895F6F7909547
:1023F00081959F4F0895A1E21A2EAA1BBB1BFD01D8
:102400000DC0AA1FBB1FEE1FFF1FA217B307E407D3
:10241000F50720F0A21BB30BE40BF50B661F771F2B
:10242000881F991F1A9469F760957095809590950B
:102430009B01AC01BD01CF0108952F923F924F92B5
:102440005F926F927F928F929F92AF92BF92CF9244
:10245000DF92EF92FF920F931F93CF93DF93CDB74D
:10246000DEB7CA1BDB0B0FB6F894DEBF0FBECDBFC5
:1024700009942A88398848885F846E847D848C8496
:102480009B84AA84B984C884DF80EE80FD800C819F
:102490001B81AA81B981CE0FD11D0FB6F894DEBF82
:1024A0000FBECDBFED010895EE0FFF1F0590F49113
:0824B000E02D0994F894FFCF20
:1024B8004F4E00436F6D6D616E6465203A204F4E3C
:1024C800004F464600436F6D6D616E6465203A208B
:1024D8004F464600436F6D6D616E646520696E639B
:1024E8006F6E6E75650000417474656E7465204387
:1024F8006F6D6D616E646520284F4E2F4F464629DB
:10250800000030003030313031303130003130307F
:10251800303130313000313031303030313000310D
:1025280030313031303030003030313031300031FE
:1025380030303031300031303130303000313031EE
:1025480030313031003131003030002000360300A6
:10255800003C000000000085062D0718064C062CDC
:0425680006750600EE
:00000001FF
